{
  "_format": "hh-sol-artifact-1",
  "contractName": "RecurringPaymentFactory",
  "sourceName": "contracts/RecurringPaymentFactory.sol",
  "abi": [
    {
      "inputs": [
        {
          "internalType": "address",
          "name": "_gelatoAutomation",
          "type": "address"
        }
      ],
      "stateMutability": "nonpayable",
      "type": "constructor"
    },
    {
      "inputs": [],
      "name": "FailedDeployment",
      "type": "error"
    },
    {
      "inputs": [
        {
          "internalType": "uint256",
          "name": "balance",
          "type": "uint256"
        },
        {
          "internalType": "uint256",
          "name": "needed",
          "type": "uint256"
        }
      ],
      "name": "InsufficientBalance",
      "type": "error"
    },
    {
      "inputs": [
        {
          "internalType": "address",
          "name": "owner",
          "type": "address"
        }
      ],
      "name": "OwnableInvalidOwner",
      "type": "error"
    },
    {
      "inputs": [
        {
          "internalType": "address",
          "name": "account",
          "type": "address"
        }
      ],
      "name": "OwnableUnauthorizedAccount",
      "type": "error"
    },
    {
      "anonymous": false,
      "inputs": [
        {
          "indexed": true,
          "internalType": "address",
          "name": "previousOwner",
          "type": "address"
        },
        {
          "indexed": true,
          "internalType": "address",
          "name": "newOwner",
          "type": "address"
        }
      ],
      "name": "OwnershipTransferred",
      "type": "event"
    },
    {
      "anonymous": false,
      "inputs": [
        {
          "indexed": true,
          "internalType": "address",
          "name": "plan",
          "type": "address"
        },
        {
          "indexed": true,
          "internalType": "address",
          "name": "payer",
          "type": "address"
        },
        {
          "indexed": true,
          "internalType": "address",
          "name": "recipient",
          "type": "address"
        },
        {
          "indexed": false,
          "internalType": "uint256",
          "name": "amount",
          "type": "uint256"
        },
        {
          "indexed": false,
          "internalType": "uint256",
          "name": "interval",
          "type": "uint256"
        },
        {
          "indexed": false,
          "internalType": "uint256",
          "name": "startTime",
          "type": "uint256"
        },
        {
          "indexed": false,
          "internalType": "string",
          "name": "title",
          "type": "string"
        }
      ],
      "name": "PlanCreated",
      "type": "event"
    },
    {
      "inputs": [
        {
          "internalType": "address",
          "name": "_recipient",
          "type": "address"
        },
        {
          "internalType": "uint256",
          "name": "_amount",
          "type": "uint256"
        },
        {
          "internalType": "uint256",
          "name": "_interval",
          "type": "uint256"
        },
        {
          "internalType": "uint256",
          "name": "_startTime",
          "type": "uint256"
        },
        {
          "internalType": "string",
          "name": "_title",
          "type": "string"
        }
      ],
      "name": "createPlan",
      "outputs": [],
      "stateMutability": "payable",
      "type": "function"
    },
    {
      "inputs": [],
      "name": "getPayerPlans",
      "outputs": [
        {
          "internalType": "address[]",
          "name": "",
          "type": "address[]"
        }
      ],
      "stateMutability": "view",
      "type": "function"
    },
    {
      "inputs": [],
      "name": "getRecipientPlans",
      "outputs": [
        {
          "internalType": "address[]",
          "name": "",
          "type": "address[]"
        }
      ],
      "stateMutability": "view",
      "type": "function"
    },
    {
      "inputs": [],
      "name": "owner",
      "outputs": [
        {
          "internalType": "address",
          "name": "",
          "type": "address"
        }
      ],
      "stateMutability": "view",
      "type": "function"
    },
    {
      "inputs": [
        {
          "internalType": "address",
          "name": "",
          "type": "address"
        },
        {
          "internalType": "uint256",
          "name": "",
          "type": "uint256"
        }
      ],
      "name": "payerToPlans",
      "outputs": [
        {
          "internalType": "address",
          "name": "",
          "type": "address"
        }
      ],
      "stateMutability": "view",
      "type": "function"
    },
    {
      "inputs": [
        {
          "internalType": "address",
          "name": "",
          "type": "address"
        },
        {
          "internalType": "uint256",
          "name": "",
          "type": "uint256"
        }
      ],
      "name": "recipientToPlans",
      "outputs": [
        {
          "internalType": "address",
          "name": "",
          "type": "address"
        }
      ],
      "stateMutability": "view",
      "type": "function"
    },
    {
      "inputs": [],
      "name": "recurringPaymentImplementation",
      "outputs": [
        {
          "internalType": "address",
          "name": "",
          "type": "address"
        }
      ],
      "stateMutability": "view",
      "type": "function"
    },
    {
      "inputs": [],
      "name": "renounceOwnership",
      "outputs": [],
      "stateMutability": "nonpayable",
      "type": "function"
    },
    {
      "inputs": [
        {
          "internalType": "address",
          "name": "newOwner",
          "type": "address"
        }
      ],
      "name": "transferOwnership",
      "outputs": [],
      "stateMutability": "nonpayable",
      "type": "function"
    }
  ],
  "bytecode": "0x60a060405234801561001057600080fd5b50604051612b4d380380612b4d83398101604081905261002f91610110565b338061005557604051631e4fbdf760e01b81526000600482015260240160405180910390fd5b61005e816100b3565b50308160405161006d90610103565b6001600160a01b03928316815291166020820152604001604051809103906000f0801580156100a0573d6000803e3d6000fd5b506001600160a01b031660805250610140565b600080546001600160a01b038381166001600160a01b0319831681178455604051919092169283917f8be0079c531659141344cd1fd0a4f28419497f9722a3daafe3b4186f6b6457e09190a35050565b611fad80610ba083390190565b60006020828403121561012257600080fd5b81516001600160a01b038116811461013957600080fd5b9392505050565b608051610a3f61016160003960008181609d01526104f40152610a3f6000f3fe6080604052600436106100865760003560e01c80638da5cb5b116100595780638da5cb5b1461013557806396fe72e2146101535780639a633cb214610168578063ae10178314610188578063f2fde38b1461019b57600080fd5b80633e9d66cb1461008b578063417a4c1b146100dc5780635ac77284146100fe578063715018a61461011e575b600080fd5b34801561009757600080fd5b506100bf7f000000000000000000000000000000000000000000000000000000000000000081565b6040516001600160a01b0390911681526020015b60405180910390f35b3480156100e857600080fd5b506100f16101bb565b6040516100d391906107a1565b34801561010a57600080fd5b506100bf61011936600461080a565b610226565b34801561012a57600080fd5b5061013361025e565b005b34801561014157600080fd5b506000546001600160a01b03166100bf565b34801561015f57600080fd5b506100f1610272565b34801561017457600080fd5b506100bf61018336600461080a565b6102db565b61013361019636600461084a565b6102f7565b3480156101a757600080fd5b506101336101b6366004610929565b61063d565b3360009081526001602090815260409182902080548351818402810184019094528084526060939283018282801561021c57602002820191906000526020600020905b81546001600160a01b031681526001909101906020018083116101fe575b5050505050905090565b6001602052816000526040600020818154811061024257600080fd5b6000918252602090912001546001600160a01b03169150829050565b61026661067b565b61027060006106a8565b565b3360009081526002602090815260409182902080548351818402810184019094528084526060939283018282801561021c576020028201919060005260206000209081546001600160a01b031681526001909101906020018083116101fe575050505050905090565b6002602052816000526040600020818154811061024257600080fd5b6001600160a01b0385166103465760405162461bcd60e51b8152602060048201526011602482015270125b9d985b1a59081c9958da5c1a595b9d607a1b60448201526064015b60405180910390fd5b600a8410156103a65760405162461bcd60e51b815260206004820152602660248201527f5061796d656e7420616d6f756e74206d757374206265206174206c656173742060448201526531302077656960d01b606482015260840161033d565b603c83101561040a5760405162461bcd60e51b815260206004820152602a60248201527f5061796d656e7420696e74657276616c206d757374206265206174206c656173604482015269742031206d696e75746560b01b606482015260840161033d565b4282101561045a5760405162461bcd60e51b815260206004820181905260248201527f53746172742074696d65206d75737420626520696e2074686520667574757265604482015260640161033d565b833410156104aa5760405162461bcd60e51b815260206004820152601c60248201527f496e73756666696369656e7420696e697469616c2066756e64696e6700000000604482015260640161033d565b603c815111156104ed5760405162461bcd60e51b815260206004820152600e60248201526d5469746c6520746f6f206c6f6e6760901b604482015260640161033d565b60006105187f00000000000000000000000000000000000000000000000000000000000000006106f8565b336000818152600160208181526040808420805480850182559085528285200180546001600160a01b038089166001600160a01b031992831681179093558e168652600284528286208054958601815586529290942090920180549091168317905551635c853b1560e11b81529293509163b90a762a9134916105a891908b908b908b908b908b90600401610991565b6000604051808303818588803b1580156105c157600080fd5b505af11580156105d5573d6000803e3d6000fd5b5050505050856001600160a01b0316336001600160a01b0316826001600160a01b03167f56138427926b2b726c8ba917575545e0aef01e2d6dda045aac41836875393dcf8888888860405161062d94939291906109da565b60405180910390a4505050505050565b61064561067b565b6001600160a01b03811661066f57604051631e4fbdf760e01b81526000600482015260240161033d565b610678816106a8565b50565b6000546001600160a01b031633146102705760405163118cdaa760e01b815233600482015260240161033d565b600080546001600160a01b038381166001600160a01b0319831681178455604051919092169283917f8be0079c531659141344cd1fd0a4f28419497f9722a3daafe3b4186f6b6457e09190a35050565b600061070582600061070b565b92915050565b6000814710156107375760405163cf47918160e01b81524760048201526024810183905260440161033d565b763d602d80600a3d3981f3363d3d373d3d3d363d730000008360601b60e81c176000526e5af43d82803e903d91602b57fd5bf38360781b176020526037600983f090506001600160a01b0381166107055760405163b06ebf3d60e01b815260040160405180910390fd5b6020808252825182820181905260009190848201906040850190845b818110156107e25783516001600160a01b0316835292840192918401916001016107bd565b50909695505050505050565b80356001600160a01b038116811461080557600080fd5b919050565b6000806040838503121561081d57600080fd5b610826836107ee565b946020939093013593505050565b634e487b7160e01b600052604160045260246000fd5b600080600080600060a0868803121561086257600080fd5b61086b866107ee565b9450602086013593506040860135925060608601359150608086013567ffffffffffffffff8082111561089d57600080fd5b818801915088601f8301126108b157600080fd5b8135818111156108c3576108c3610834565b604051601f8201601f19908116603f011681019083821181831017156108eb576108eb610834565b816040528281528b602084870101111561090457600080fd5b8260208601602083013760006020848301015280955050505050509295509295909350565b60006020828403121561093b57600080fd5b610944826107ee565b9392505050565b6000815180845260005b8181101561097157602081850181015186830182015201610955565b506000602082860101526020601f19601f83011685010191505092915050565b600060018060a01b03808916835280881660208401525085604083015284606083015283608083015260c060a08301526109ce60c083018461094b565b98975050505050505050565b8481528360208201528260408201526080606082015260006109ff608083018461094b565b969550505050505056fea2646970667358221220cbca8f1e02ea4c1046ebd2e2b90add42959c985dbee1639924655d5d2578e4cd64736f6c6343000819003360c060405234801561001057600080fd5b50604051611fad380380611fad83398101604081905261002f916100f5565b8080338061005757604051631e4fbdf760e01b81526000600482015260240160405180910390fd5b6100608161007e565b506001600160a01b039081166080529290921660a052506101289050565b600080546001600160a01b038381166201000081810262010000600160b01b0319851617855560405193049190911692909183917f8be0079c531659141344cd1fd0a4f28419497f9722a3daafe3b4186f6b6457e091a35050565b80516001600160a01b03811681146100f057600080fd5b919050565b6000806040838503121561010857600080fd5b610111836100d9565b915061011f602084016100d9565b90509250929050565b60805160a051611e4461016960003960006104d401526000818161024f01528181611146015281816112580152818161168a01526117960152611e446000f3fe6080604052600436106101ba5760003560e01c8063715018a6116100ec578063aa8c217c1161008a578063c4b8db4611610064578063c4b8db46146104f6578063f2fde38b1461050c578063f75b4ddd1461052c578063f821e1ab1461054157600080fd5b8063aa8c217c14610499578063b90a762a146104af578063c45a0155146104c257600080fd5b80638da5cb5b116100c65780638da5cb5b1461044257806393873b4814610466578063947a36fb1461047b578063a26759cb1461049157600080fd5b8063715018a6146103f457806378e979251461040957806379a8416e1461041f57600080fd5b80632d308ac6116101595780634a79d50c116101335780634a79d50c146103725780634e69d5601461039457806357fb1d67146103ac57806366d003ac146103d457600080fd5b80632d308ac6146103325780633322b23d1461034757806346c501211461035d57600080fd5b8063200d2ed211610195578063200d2ed2146102a957806322a90082146102d0578063271f88b4146102f257806328f150eb1461031257600080fd5b80625b448714610214578063049aacfe1461023d578063123119cd1461028957600080fd5b3661020f5760035460405133916001600160a01b03169030907fa31f0cb4715c8db31b3bb04dd77ada351e0ac574f377c508267e2e40d9b19281906102059034904290600990611857565b60405180910390a4005b600080fd5b34801561022057600080fd5b5061022a600c5481565b6040519081526020015b60405180910390f35b34801561024957600080fd5b506102717f000000000000000000000000000000000000000000000000000000000000000081565b6040516001600160a01b039091168152602001610234565b34801561029557600080fd5b50600354610271906001600160a01b031681565b3480156102b557600080fd5b50600a546102c39060ff1681565b604051610234919061190c565b3480156102dc57600080fd5b506102f06102eb366004611926565b610556565b005b3480156102fe57600080fd5b506102f061030d366004611926565b610608565b34801561031e57600080fd5b50600254610271906001600160a01b031681565b34801561033e57600080fd5b506102f06106a0565b34801561035357600080fd5b5061022a60085481565b34801561036957600080fd5b506102f0610974565b34801561037e57600080fd5b50610387610a33565b6040516102349190611985565b3480156103a057600080fd5b50600a5460ff166102c3565b3480156103b857600080fd5b50610271737506c12a824d73d9b08564d5afc22c949434755e81565b3480156103e057600080fd5b50600454610271906001600160a01b031681565b34801561040057600080fd5b506102f0610ac1565b34801561041557600080fd5b5061022a60075481565b34801561042b57600080fd5b50610434610ad5565b60405161023492919061199f565b34801561044e57600080fd5b506000546201000090046001600160a01b0316610271565b34801561047257600080fd5b5061022a610b82565b34801561048757600080fd5b5061022a60065481565b6102f0610bcd565b3480156104a557600080fd5b5061022a60055481565b6102f06104bd3660046119ed565b610c6d565b3480156104ce57600080fd5b506102717f000000000000000000000000000000000000000000000000000000000000000081565b34801561050257600080fd5b5061022a600b5481565b34801561051857600080fd5b506102f0610527366004611adf565b610dec565b34801561053857600080fd5b506102f0610e2a565b34801561054d57600080fd5b506102f0610f8c565b61055e611048565b603c8110156105c05760405162461bcd60e51b8152602060048201526024808201527f496e74657276616c206d757374206265206174206c65617374203630207365636044820152636f6e647360e01b60648201526084015b60405180910390fd5b6006805490829055604080518281526020810184905230917f2b74fb3be3a5425b1a09a2c32da484f019f1b54a0cd5cc467f519830c5a6e6ab91015b60405180910390a25050565b610610611048565b600081116106605760405162461bcd60e51b815260206004820181905260248201527f416d6f756e74206d7573742062652067726561746572207468616e207a65726f60448201526064016105b7565b6005805490829055604080518281526020810184905230917fa248e68e155554ec8d8d4278133f638333666b9f28e019f6b4b0ec0ae127ec3991016105fc565b6002546001600160a01b031633146106fa5760405162461bcd60e51b815260206004820152601960248201527f4f6e6c7920646564696361746564206d73672e73656e6465720000000000000060448201526064016105b7565b6000600a5460ff166002811115610713576107136118f6565b146107525760405162461bcd60e51b815260206004820152600f60248201526e506c616e206e6f742061637469766560881b60448201526064016105b7565b6005544710156107a45760405162461bcd60e51b815260206004820152601760248201527f496e73756666696369656e7420757365722066756e647300000000000000000060448201526064016105b7565b600b54600003610805576007544210156108005760405162461bcd60e51b815260206004820152601b60248201527f546f6f206561726c7920666f72206669727374207061796d656e74000000000060448201526064016105b7565b610864565b600654600b546108159190611afc565b4210156108645760405162461bcd60e51b815260206004820152601c60248201527f5061796d656e7420696e74657276616c206e6f7420726561636865640000000060448201526064016105b7565b42600b819055506001600c600082825461087e9190611afc565b90915550506004546005546040516000926001600160a01b031691908381818185875af1925050503d80600081146108d2576040519150601f19603f3d011682016040523d82523d6000602084013e6108d7565b606091505b505090508061091a5760405162461bcd60e51b815260206004820152600f60248201526e151c985b9cd9995c8819985a5b1959608a1b60448201526064016105b7565b6004546003546005546040516001600160a01b03938416939092169130917f91c0d3b5ab65c7481b7c162cea9d84d24336bedc6c689aef9d21a171d38f26ec9161096991904290600990611857565b60405180910390a450565b61097c611048565b6001600a5460ff166002811115610995576109956118f6565b146109e25760405162461bcd60e51b815260206004820181905260248201527f4f6e6c792070617573656420706c616e732063616e20626520726573756d656460448201526064016105b7565b600a805460ff191690556003546040514281526001600160a01b039091169030907ff69d3918baa3f9e6ddc4f31704984ed07f6c0cf23f094e02caa178ae7db46925906020015b60405180910390a3565b60098054610a409061181d565b80601f0160208091040260200160405190810160405280929190818152602001828054610a6c9061181d565b8015610ab95780601f10610a8e57610100808354040283529160200191610ab9565b820191906000526020600020905b815481529060010190602001808311610a9c57829003601f168201915b505050505081565b610ac9611048565b610ad3600061107c565b565b600060608180600a5460ff166002811115610af257610af26118f6565b148015610b0157506005544710155b8015610b2f5750600b5415610b2857600654600b54610b209190611afc565b421015610b2f565b6007544210155b90508015610b6a5750506040805160048152602481019091526020810180516001600160e01b0316631698456360e11b179052600192909150565b50506040805160208101909152600080825292909150565b600080600a5460ff166002811115610b9c57610b9c6118f6565b14610ba75750600090565b600b54600003610bb8575060075490565b600654600b54610bc89190611afc565b905090565b60003411610c1d5760405162461bcd60e51b815260206004820152601760248201527f4e6f2066756e64696e67207761732070726f766964656400000000000000000060448201526064016105b7565b60035460405133916001600160a01b03169030907f843876ee89eba578deef089ab7b7d3d6f7085978a15ad37435fde01a5ae192fb90610c639034904290600990611857565b60405180910390a4565b600054610100900460ff1615808015610c8d5750600054600160ff909116105b80610ca75750303b158015610ca7575060005460ff166001145b610d0a5760405162461bcd60e51b815260206004820152602e60248201527f496e697469616c697a61626c653a20636f6e747261637420697320616c72656160448201526d191e481a5b9a5d1a585b1a5e995960921b60648201526084016105b7565b6000805460ff191660011790558015610d2d576000805461ff0019166101001790555b600380546001600160a01b038981166001600160a01b0319928316179092556004805492891692909116919091179055600585905560068490556007839055600a805460ff191690556009610d828382611b6e565b50610d8c8761107c565b610d95306110d7565b610d9d6113c9565b8015610de3576000805461ff0019169055604051600181527f7f26b83ff96e1f2b6a682f133852f6798a09c465da95921460cefb38474024989060200160405180910390a15b50505050505050565b610df4611048565b6001600160a01b038116610e1e57604051631e4fbdf760e01b8152600060048201526024016105b7565b610e278161107c565b50565b610e32611048565b6002600a5460ff166002811115610e4b57610e4b6118f6565b03610e8b5760405162461bcd60e51b815260206004820152601060248201526f105b1c9958591e4818d85b98d95b195960821b60448201526064016105b7565b600a805460ff19166002179055600854610ea490611674565b478015610f40576003546040516000916001600160a01b03169083908381818185875af1925050503d8060008114610ef8576040519150601f19603f3d011682016040523d82523d6000602084013e610efd565b606091505b5050905080610f3e5760405162461bcd60e51b815260206004820152600d60248201526c1499599d5b990819985a5b1959609a1b60448201526064016105b7565b505b600354604080518381524260208201526001600160a01b039092169130917f714154ae110bc9cab03647b431696729021698f73b100fcb982401b4d1000024910160405180910390a350565b610f94611048565b6000600a5460ff166002811115610fad57610fad6118f6565b14610ffa5760405162461bcd60e51b815260206004820152601f60248201527f4f6e6c792061637469766520706c616e732063616e206265207061757365640060448201526064016105b7565b600a805460ff191660011790556003546040514281526001600160a01b039091169030907fc8c6e5dff6ab763fd9a15e96e09befdd97ce833b6aece4e1a42cb95caaac872190602001610a29565b6000546001600160a01b0362010000909104163314610ad35760405163118cdaa760e01b81523360048201526024016105b7565b600080546001600160a01b038381166201000081810262010000600160b01b0319851617855560405193049190911692909183917f8be0079c531659141344cd1fd0a4f28419497f9722a3daafe3b4186f6b6457e091a35050565b600054610100900460ff166111425760405162461bcd60e51b815260206004820152602b60248201527f496e697469616c697a61626c653a20636f6e7472616374206973206e6f74206960448201526a6e697469616c697a696e6760a81b60648201526084016105b7565b60007f00000000000000000000000000000000000000000000000000000000000000006001600160a01b031663573ea5756040518163ffffffff1660e01b8152600401602060405180830381865afa1580156111a2573d6000803e3d6000fd5b505050506040513d601f19601f820116820180604052508101906111c69190611c2e565b9050806001600160a01b031663c415b95c6040518163ffffffff1660e01b8152600401602060405180830381865afa158015611206573d6000803e3d6000fd5b505050506040513d601f19601f8201168201806040525081019061122a9190611c2e565b600180546001600160a01b0319166001600160a01b0392831617905560405163cd3d4fb960e01b81526000917f0000000000000000000000000000000000000000000000000000000000000000169063cd3d4fb99061128e90600290600401611c5f565b602060405180830381865afa1580156112ab573d6000803e3d6000fd5b505050506040513d601f19601f820116820180604052508101906112cf9190611c2e565b90506000816001600160a01b031663ba1d0ff46040518163ffffffff1660e01b8152600401602060405180830381865afa158015611311573d6000803e3d6000fd5b505050506040513d601f19601f820116820180604052508101906113359190611c2e565b6040516337b6269f60e21b81526001600160a01b0386811660048301529192509082169063ded89a7c906024016040805180830381865afa15801561137e573d6000803e3d6000fd5b505050506040513d601f19601f820116820180604052508101906113a29190611c6d565b50600280546001600160a01b0319166001600160a01b039290921691909117905550505050565b600854156114105760405162461bcd60e51b815260206004820152601460248201527315185cdac8185b1c9958591e4818dc99585d195960621b60448201526064016105b7565b60408051631698456360e11b60208201526000910160408051808303601f19018152600383830181815260c085019093529093506000929182918160200160208202803683370190505081526040805160038082526080820190925260209092019190816020015b606081526020019060019003908161147857505090528051805191925060009182906114a6576114a6611cac565b602002602001019060058111156114bf576114bf6118f6565b908160058111156114d2576114d26118f6565b81525050600281600001516001815181106114ef576114ef611cac565b60200260200101906005811115611508576115086118f6565b9081600581111561151b5761151b6118f6565b815250506005816000015160028151811061153857611538611cac565b60200260200101906005811115611551576115516118f6565b90816005811115611564576115646118f6565b9052506040805160048152602481019091526020810180516001600160e01b0316633cd420b760e11b17905261159b9030906116f1565b81602001516000815181106115b2576115b2611cac565b60200260200101819052506115d260408051602081019091526000815290565b81602001516001815181106115e9576115e9611cac565b60200260200101819052506115fc61171e565b816020015160028151811061161357611613611cac565b602002602001018190525061162b308383600061177c565b6008819055600354604080519283523060208401526001600160a01b03909116917fe70bbfa0082d0286f39feb6c944f6be9f3734c64279a4af3d7cb1a42665ddd5f91016105fc565b60405163ee8ca3b560e01b8152600481018290527f00000000000000000000000000000000000000000000000000000000000000006001600160a01b03169063ee8ca3b590602401600060405180830381600087803b1580156116d657600080fd5b505af11580156116ea573d6000803e3d6000fd5b5050505050565b60608282604051602001611706929190611cc2565b60405160208183030381529060405290505b92915050565b60606000604051806020016040528060008152506040516020016117429190611985565b6040516020818303038152906040529050600381604051602001611767929190611ce6565b60405160208183030381529060405291505090565b604051633323b46760e01b81526000906001600160a01b037f00000000000000000000000000000000000000000000000000000000000000001690633323b467906117d1908890889088908890600401611d0f565b6020604051808303816000875af11580156117f0573d6000803e3d6000fd5b505050506040513d601f19601f820116820180604052508101906118149190611df5565b95945050505050565b600181811c9082168061183157607f821691505b60208210810361185157634e487b7160e01b600052602260045260246000fd5b50919050565b8381526000602084602084015260606040840152600084546118788161181d565b806060870152608060018084166000811461189a57600181146118b6576118e6565b60ff19851660808a0152608084151560051b8a010195506118e6565b89600052602060002060005b858110156118dd5781548b82018601529083019088016118c2565b8a016080019650505b50939a9950505050505050505050565b634e487b7160e01b600052602160045260246000fd5b6020810160038310611920576119206118f6565b91905290565b60006020828403121561193857600080fd5b5035919050565b6000815180845260005b8181101561196557602081850181015186830182015201611949565b506000602082860101526020601f19601f83011685010191505092915050565b602081526000611998602083018461193f565b9392505050565b82151581526040602082015260006119ba604083018461193f565b949350505050565b6001600160a01b0381168114610e2757600080fd5b634e487b7160e01b600052604160045260246000fd5b60008060008060008060c08789031215611a0657600080fd5b8635611a11816119c2565b95506020870135611a21816119c2565b945060408701359350606087013592506080870135915060a087013567ffffffffffffffff80821115611a5357600080fd5b818901915089601f830112611a6757600080fd5b813581811115611a7957611a796119d7565b604051601f8201601f19908116603f01168101908382118183101715611aa157611aa16119d7565b816040528281528c6020848701011115611aba57600080fd5b8260208601602083013760006020848301015280955050505050509295509295509295565b600060208284031215611af157600080fd5b8135611998816119c2565b8082018082111561171857634e487b7160e01b600052601160045260246000fd5b601f821115611b69576000816000526020600020601f850160051c81016020861015611b465750805b601f850160051c820191505b81811015611b6557828155600101611b52565b5050505b505050565b815167ffffffffffffffff811115611b8857611b886119d7565b611b9c81611b96845461181d565b84611b1d565b602080601f831160018114611bd15760008415611bb95750858301515b600019600386901b1c1916600185901b178555611b65565b600085815260208120601f198616915b82811015611c0057888601518255948401946001909101908401611be1565b5085821015611c1e5787850151600019600388901b60f8161c191681555b5050505050600190811b01905550565b600060208284031215611c4057600080fd5b8151611998816119c2565b60068110611c5b57611c5b6118f6565b9052565b602081016117188284611c4b565b60008060408385031215611c8057600080fd5b8251611c8b816119c2565b60208401519092508015158114611ca157600080fd5b809150509250929050565b634e487b7160e01b600052603260045260246000fd5b6001600160a01b03831681526040602082018190526000906119ba9083018461193f565b600060048410611cf857611cf86118f6565b838252604060208301526119ba604083018461193f565b6001600160a01b038516815260806020808301829052600091611d349084018761193f565b8381036040808601919091528651818352805191830182905283019060009060608401905b80831015611d8057611d6c828551611c4b565b928501926001929092019190850190611d59565b508885015184820394860194909452835180825281860194860193509150600582901b8101850160005b83811015611dd857601f19838303018652611dc682865161193f565b95870195948701949150600101611daa565b506001600160a01b03891660608901529550611814945050505050565b600060208284031215611e0757600080fd5b505191905056fea2646970667358221220bc50b62d6a35850db74031bd4024f3143101bd2d9cf1fafb46e9637ec9cb890b64736f6c63430008190033",
  "linkReferences": {},
  "deployedLinkReferences": {}
}