{
  "_format": "hh-sol-artifact-1",
  "contractName": "RecurringPaymentFactory",
  "sourceName": "contracts/RecurringPaymentFactory.sol",
  "abi": [
    {
      "inputs": [
        {
          "internalType": "address",
          "name": "_gelatoAutomation",
          "type": "address"
        }
      ],
      "stateMutability": "nonpayable",
      "type": "constructor"
    },
    {
      "inputs": [],
      "name": "FailedDeployment",
      "type": "error"
    },
    {
      "inputs": [
        {
          "internalType": "uint256",
          "name": "balance",
          "type": "uint256"
        },
        {
          "internalType": "uint256",
          "name": "needed",
          "type": "uint256"
        }
      ],
      "name": "InsufficientBalance",
      "type": "error"
    },
    {
      "inputs": [
        {
          "internalType": "address",
          "name": "owner",
          "type": "address"
        }
      ],
      "name": "OwnableInvalidOwner",
      "type": "error"
    },
    {
      "inputs": [
        {
          "internalType": "address",
          "name": "account",
          "type": "address"
        }
      ],
      "name": "OwnableUnauthorizedAccount",
      "type": "error"
    },
    {
      "anonymous": false,
      "inputs": [
        {
          "indexed": true,
          "internalType": "address",
          "name": "previousOwner",
          "type": "address"
        },
        {
          "indexed": true,
          "internalType": "address",
          "name": "newOwner",
          "type": "address"
        }
      ],
      "name": "OwnershipTransferred",
      "type": "event"
    },
    {
      "anonymous": false,
      "inputs": [
        {
          "indexed": true,
          "internalType": "address",
          "name": "planAddress",
          "type": "address"
        },
        {
          "indexed": true,
          "internalType": "address",
          "name": "payer",
          "type": "address"
        },
        {
          "indexed": true,
          "internalType": "address",
          "name": "recipient",
          "type": "address"
        },
        {
          "indexed": false,
          "internalType": "uint256",
          "name": "amount",
          "type": "uint256"
        },
        {
          "indexed": false,
          "internalType": "uint256",
          "name": "interval",
          "type": "uint256"
        },
        {
          "indexed": false,
          "internalType": "uint256",
          "name": "startTime",
          "type": "uint256"
        }
      ],
      "name": "PlanCreated",
      "type": "event"
    },
    {
      "inputs": [
        {
          "internalType": "address",
          "name": "_recipient",
          "type": "address"
        },
        {
          "internalType": "uint256",
          "name": "_amount",
          "type": "uint256"
        },
        {
          "internalType": "uint256",
          "name": "_interval",
          "type": "uint256"
        },
        {
          "internalType": "uint256",
          "name": "_startTime",
          "type": "uint256"
        }
      ],
      "name": "createPlan",
      "outputs": [],
      "stateMutability": "payable",
      "type": "function"
    },
    {
      "inputs": [],
      "name": "getPayerPlans",
      "outputs": [
        {
          "internalType": "address[]",
          "name": "",
          "type": "address[]"
        }
      ],
      "stateMutability": "view",
      "type": "function"
    },
    {
      "inputs": [],
      "name": "getRecipientPlans",
      "outputs": [
        {
          "internalType": "address[]",
          "name": "",
          "type": "address[]"
        }
      ],
      "stateMutability": "view",
      "type": "function"
    },
    {
      "inputs": [],
      "name": "owner",
      "outputs": [
        {
          "internalType": "address",
          "name": "",
          "type": "address"
        }
      ],
      "stateMutability": "view",
      "type": "function"
    },
    {
      "inputs": [
        {
          "internalType": "address",
          "name": "",
          "type": "address"
        },
        {
          "internalType": "uint256",
          "name": "",
          "type": "uint256"
        }
      ],
      "name": "payerToPlans",
      "outputs": [
        {
          "internalType": "address",
          "name": "",
          "type": "address"
        }
      ],
      "stateMutability": "view",
      "type": "function"
    },
    {
      "inputs": [
        {
          "internalType": "address",
          "name": "",
          "type": "address"
        },
        {
          "internalType": "uint256",
          "name": "",
          "type": "uint256"
        }
      ],
      "name": "recipientToPlans",
      "outputs": [
        {
          "internalType": "address",
          "name": "",
          "type": "address"
        }
      ],
      "stateMutability": "view",
      "type": "function"
    },
    {
      "inputs": [],
      "name": "recurringPaymentImplementation",
      "outputs": [
        {
          "internalType": "address",
          "name": "",
          "type": "address"
        }
      ],
      "stateMutability": "view",
      "type": "function"
    },
    {
      "inputs": [],
      "name": "renounceOwnership",
      "outputs": [],
      "stateMutability": "nonpayable",
      "type": "function"
    },
    {
      "inputs": [
        {
          "internalType": "address",
          "name": "newOwner",
          "type": "address"
        }
      ],
      "name": "transferOwnership",
      "outputs": [],
      "stateMutability": "nonpayable",
      "type": "function"
    }
  ],
  "bytecode": "0x60a060405234801561001057600080fd5b506040516124fb3803806124fb83398101604081905261002f91610110565b338061005557604051631e4fbdf760e01b81526000600482015260240160405180910390fd5b61005e816100b3565b50308160405161006d90610103565b6001600160a01b03928316815291166020820152604001604051809103906000f0801580156100a0573d6000803e3d6000fd5b506001600160a01b031660805250610140565b600080546001600160a01b038381166001600160a01b0319831681178455604051919092169283917f8be0079c531659141344cd1fd0a4f28419497f9722a3daafe3b4186f6b6457e09190a35050565b611b0f806109ec83390190565b60006020828403121561012257600080fd5b81516001600160a01b038116811461013957600080fd5b9392505050565b60805161088b6101616000396000818160b20152610375015261088b6000f3fe6080604052600436106100865760003560e01c8063715018a611610059578063715018a6146101335780638da5cb5b1461014857806396fe72e2146101665780639a633cb21461017b578063f2fde38b1461019b57600080fd5b80630339e9fa1461008b5780633e9d66cb146100a0578063417a4c1b146100f15780635ac7728414610113575b600080fd5b61009e610099366004610783565b6101bb565b005b3480156100ac57600080fd5b506100d47f000000000000000000000000000000000000000000000000000000000000000081565b6040516001600160a01b0390911681526020015b60405180910390f35b3480156100fd57600080fd5b506101066104c7565b6040516100e891906107bc565b34801561011f57600080fd5b506100d461012e366004610809565b610532565b34801561013f57600080fd5b5061009e61056a565b34801561015457600080fd5b506000546001600160a01b03166100d4565b34801561017257600080fd5b5061010661057e565b34801561018757600080fd5b506100d4610196366004610809565b6105e7565b3480156101a757600080fd5b5061009e6101b6366004610833565b610603565b6001600160a01b03841661020a5760405162461bcd60e51b8152602060048201526011602482015270125b9d985b1a59081c9958da5c1a595b9d607a1b60448201526064015b60405180910390fd5b600a83101561026a5760405162461bcd60e51b815260206004820152602660248201527f5061796d656e7420616d6f756e74206d757374206265206174206c656173742060448201526531302077656960d01b6064820152608401610201565b603c8210156102ce5760405162461bcd60e51b815260206004820152602a60248201527f5061796d656e7420696e74657276616c206d757374206265206174206c656173604482015269742031206d696e75746560b01b6064820152608401610201565b4281101561031e5760405162461bcd60e51b815260206004820181905260248201527f53746172742074696d65206d75737420626520696e20746865206675747572656044820152606401610201565b8234101561036e5760405162461bcd60e51b815260206004820152601c60248201527f496e73756666696369656e7420696e697469616c2066756e64696e67000000006044820152606401610201565b60006103997f0000000000000000000000000000000000000000000000000000000000000000610641565b336000818152600160208181526040808420805480850182559085528285200180546001600160a01b038881166001600160a01b031992831681179093558d16808752600285528387208054968701815587529390952090930180549094168317909355915163344fe42d60e21b81526004810193909352602483019190915260448201879052606482018690526084820185905291925063d13f90b490349060a4016000604051808303818588803b15801561045557600080fd5b505af1158015610469573d6000803e3d6000fd5b505060408051888152602081018890529081018690526001600160a01b03808a169450339350851691507f9e53b1f384fd2eb2449ca3640c4da731f84c27ae8bd41800aef6fff652f9588a9060600160405180910390a45050505050565b3360009081526001602090815260409182902080548351818402810184019094528084526060939283018282801561052857602002820191906000526020600020905b81546001600160a01b0316815260019091019060200180831161050a575b5050505050905090565b6001602052816000526040600020818154811061054e57600080fd5b6000918252602090912001546001600160a01b03169150829050565b610572610654565b61057c6000610681565b565b33600090815260026020908152604091829020805483518184028101840190945280845260609392830182828015610528576020028201919060005260206000209081546001600160a01b0316815260019091019060200180831161050a575050505050905090565b6002602052816000526040600020818154811061054e57600080fd5b61060b610654565b6001600160a01b03811661063557604051631e4fbdf760e01b815260006004820152602401610201565b61063e81610681565b50565b600061064e8260006106d1565b92915050565b6000546001600160a01b0316331461057c5760405163118cdaa760e01b8152336004820152602401610201565b600080546001600160a01b038381166001600160a01b0319831681178455604051919092169283917f8be0079c531659141344cd1fd0a4f28419497f9722a3daafe3b4186f6b6457e09190a35050565b6000814710156106fd5760405163cf47918160e01b815247600482015260248101839052604401610201565b763d602d80600a3d3981f3363d3d373d3d3d363d730000008360601b60e81c176000526e5af43d82803e903d91602b57fd5bf38360781b176020526037600983f090506001600160a01b03811661064e5760405163b06ebf3d60e01b815260040160405180910390fd5b80356001600160a01b038116811461077e57600080fd5b919050565b6000806000806080858703121561079957600080fd5b6107a285610767565b966020860135965060408601359560600135945092505050565b6020808252825182820181905260009190848201906040850190845b818110156107fd5783516001600160a01b0316835292840192918401916001016107d8565b50909695505050505050565b6000806040838503121561081c57600080fd5b61082583610767565b946020939093013593505050565b60006020828403121561084557600080fd5b61084e82610767565b939250505056fea26469706673582212203011321ec10929207e7671eb72f3e0e41e6f2df13057164e53a661ddb503084864736f6c6343000819003360c060405234801561001057600080fd5b50604051611b0f380380611b0f83398101604081905261002f916100f5565b8080338061005757604051631e4fbdf760e01b81526000600482015260240160405180910390fd5b6100608161007e565b506001600160a01b039081166080529290921660a052506101289050565b600080546001600160a01b038381166201000081810262010000600160b01b0319851617855560405193049190911692909183917f8be0079c531659141344cd1fd0a4f28419497f9722a3daafe3b4186f6b6457e091a35050565b80516001600160a01b03811681146100f057600080fd5b919050565b6000806040838503121561010857600080fd5b610111836100d9565b915061011f602084016100d9565b90509250929050565b60805160a0516119a6610169600039600061044001526000818161022f01528181610f6301528181611075015281816114a701526115b301526119a66000f3fe6080604052600436106101845760003560e01c806378e97925116100d1578063aa8c217c1161008a578063d13f90b411610064578063d13f90b414610478578063f2fde38b1461048b578063f75b4ddd146104ab578063f821e1ab146104c057600080fd5b8063aa8c217c14610418578063c45a01551461042e578063c4b8db461461046257600080fd5b806378e979251461038857806379a8416e1461039e5780638da5cb5b146103c157806393873b48146103e5578063947a36fb146103fa578063a26759cb1461041057600080fd5b806328f150eb1161013e5780635354a044116101185780635354a0441461031657806357fb1d671461032b57806366d003ac14610353578063715018a61461037357600080fd5b806328f150eb146102cb5780632d308ac6146102eb5780633322b23d1461030057600080fd5b80625b4487146101ca57806302fb0c5e146101f3578063049aacfe1461021d578063123119cd1461026957806322a9008214610289578063271f88b4146102ab57600080fd5b366101c5576040805134815242602082015233917f363f315f930a17d1266b86a20d6dd34b1cfbc5a9db9f13a65d06a689c3a2af8a910160405180910390a2005b600080fd5b3480156101d657600080fd5b506101e060095481565b6040519081526020015b60405180910390f35b3480156101ff57600080fd5b50600a5461020d9060ff1681565b60405190151581526020016101ea565b34801561022957600080fd5b506102517f000000000000000000000000000000000000000000000000000000000000000081565b6040516001600160a01b0390911681526020016101ea565b34801561027557600080fd5b50600354610251906001600160a01b031681565b34801561029557600080fd5b506102a96102a436600461163a565b6104d5565b005b3480156102b757600080fd5b506102a96102c636600461163a565b610587565b3480156102d757600080fd5b50600254610251906001600160a01b031681565b3480156102f757600080fd5b506102a961061f565b34801561030c57600080fd5b506101e0600b5481565b34801561032257600080fd5b506102a96108db565b34801561033757600080fd5b50610251737506c12a824d73d9b08564d5afc22c949434755e81565b34801561035f57600080fd5b50600454610251906001600160a01b031681565b34801561037f57600080fd5b506102a9610966565b34801561039457600080fd5b506101e060075481565b3480156103aa57600080fd5b506103b361097a565b6040516101ea929190611699565b3480156103cd57600080fd5b506000546201000090046001600160a01b0316610251565b3480156103f157600080fd5b506101e0610a17565b34801561040657600080fd5b506101e060065481565b6102a9610a50565b34801561042457600080fd5b506101e060055481565b34801561043a57600080fd5b506102517f000000000000000000000000000000000000000000000000000000000000000081565b34801561046e57600080fd5b506101e060085481565b6102a96104863660046116d1565b610adc565b34801561049757600080fd5b506102a96104a6366004611722565b610c50565b3480156104b757600080fd5b506102a9610c8e565b3480156104cc57600080fd5b506102a9610dde565b6104dd610e65565b603c81101561053f5760405162461bcd60e51b8152602060048201526024808201527f496e74657276616c206d757374206265206174206c65617374203630207365636044820152636f6e647360e01b60648201526084015b60405180910390fd5b6006805490829055604080518281526020810184905230917f2b74fb3be3a5425b1a09a2c32da484f019f1b54a0cd5cc467f519830c5a6e6ab91015b60405180910390a25050565b61058f610e65565b600081116105df5760405162461bcd60e51b815260206004820181905260248201527f416d6f756e74206d7573742062652067726561746572207468616e207a65726f6044820152606401610536565b6005805490829055604080518281526020810184905230917fa248e68e155554ec8d8d4278133f638333666b9f28e019f6b4b0ec0ae127ec39910161057b565b6002546001600160a01b031633146106795760405162461bcd60e51b815260206004820152601960248201527f4f6e6c7920646564696361746564206d73672e73656e646572000000000000006044820152606401610536565b600a5460ff166106bd5760405162461bcd60e51b815260206004820152600f60248201526e506c616e206e6f742061637469766560881b6044820152606401610536565b60055447101561070f5760405162461bcd60e51b815260206004820152601760248201527f496e73756666696369656e7420757365722066756e64730000000000000000006044820152606401610536565b6008546000036107705760075442101561076b5760405162461bcd60e51b815260206004820152601b60248201527f546f6f206561726c7920666f72206669727374207061796d656e7400000000006044820152606401610536565b6107cf565b6006546008546107809190611746565b4210156107cf5760405162461bcd60e51b815260206004820152601c60248201527f5061796d656e7420696e74657276616c206e6f742072656163686564000000006044820152606401610536565b426008819055506001600960008282546107e99190611746565b90915550506004546005546040516000926001600160a01b031691908381818185875af1925050503d806000811461083d576040519150601f19603f3d011682016040523d82523d6000602084013e610842565b606091505b50509050806108855760405162461bcd60e51b815260206004820152600f60248201526e151c985b9cd9995c8819985a5b1959608a1b6044820152606401610536565b600454600354600554604080519182524260208301526001600160a01b03938416939092169130917fe23ea0e3e1b90c97b23b53fda1c16d85b1d81164966358b9937b78a6f2d052fc910160405180910390a450565b6108e3610e65565b600a5460ff161561092c5760405162461bcd60e51b8152602060048201526013602482015272506c616e20616c72656164792061637469766560681b6044820152606401610536565b600a805460ff1916600117905560405130907f1885deed9b301e1e72b30de41d2934d6847ead47d2507b6da75a9c37687f3e6590600090a2565b61096e610e65565b6109786000610e99565b565b600a54600090606090829060ff16801561099657506005544710155b80156109c45750600854156109bd576006546008546109b59190611746565b4210156109c4565b6007544210155b905080156109ff5750506040805160048152602481019091526020810180516001600160e01b0316631698456360e11b179052600192909150565b50506040805160208101909152600080825292909150565b600a5460009060ff16610a2a5750600090565b600854600003610a3b575060075490565b600654600854610a4b9190611746565b905090565b60003411610aa05760405162461bcd60e51b815260206004820152601760248201527f4e6f2066756e64696e67207761732070726f76696465640000000000000000006044820152606401610536565b6040805134815242602082015233917f92023dd282de3eea749a3a27a58271d70f04c1f7905fce2e1996ec9bdfccf33b910160405180910390a2565b600054610100900460ff1615808015610afc5750600054600160ff909116105b80610b165750303b158015610b16575060005460ff166001145b610b795760405162461bcd60e51b815260206004820152602e60248201527f496e697469616c697a61626c653a20636f6e747261637420697320616c72656160448201526d191e481a5b9a5d1a585b1a5e995960921b6064820152608401610536565b6000805460ff191660011790558015610b9c576000805461ff0019166101001790555b600380546001600160a01b038089166001600160a01b0319928316179092556004805492881692909116919091179055600584905560068390556007829055600a805460ff19166001179055610bf186610e99565b610bfa30610ef4565b610c026111e6565b8015610c48576000805461ff0019169055604051600181527f7f26b83ff96e1f2b6a682f133852f6798a09c465da95921460cefb38474024989060200160405180910390a15b505050505050565b610c58610e65565b6001600160a01b038116610c8257604051631e4fbdf760e01b815260006004820152602401610536565b610c8b81610e99565b50565b610c96610e65565b600a5460ff16610ce05760405162461bcd60e51b8152602060048201526015602482015274506c616e20616c726561647920696e61637469766560581b6044820152606401610536565b600a805460ff19169055600b54610cf690611491565b478015610d92576003546040516000916001600160a01b03169083908381818185875af1925050503d8060008114610d4a576040519150601f19603f3d011682016040523d82523d6000602084013e610d4f565b606091505b5050905080610d905760405162461bcd60e51b815260206004820152600d60248201526c1499599d5b990819985a5b1959609a1b6044820152606401610536565b505b600354604080518381524260208201526001600160a01b039092169130917f714154ae110bc9cab03647b431696729021698f73b100fcb982401b4d1000024910160405180910390a350565b610de6610e65565b600a5460ff16610e2e5760405162461bcd60e51b8152602060048201526013602482015272141b185b88185b1c9958591e481c185d5cd959606a1b6044820152606401610536565b600a805460ff1916905560405130907f0cb4de5ffdedd9dec2af4e11b70186c597f68399bb16c7ce622b73a73d3691ea90600090a2565b6000546001600160a01b03620100009091041633146109785760405163118cdaa760e01b8152336004820152602401610536565b600080546001600160a01b038381166201000081810262010000600160b01b0319851617855560405193049190911692909183917f8be0079c531659141344cd1fd0a4f28419497f9722a3daafe3b4186f6b6457e091a35050565b600054610100900460ff16610f5f5760405162461bcd60e51b815260206004820152602b60248201527f496e697469616c697a61626c653a20636f6e7472616374206973206e6f74206960448201526a6e697469616c697a696e6760a81b6064820152608401610536565b60007f00000000000000000000000000000000000000000000000000000000000000006001600160a01b031663573ea5756040518163ffffffff1660e01b8152600401602060405180830381865afa158015610fbf573d6000803e3d6000fd5b505050506040513d601f19601f82011682018060405250810190610fe39190611767565b9050806001600160a01b031663c415b95c6040518163ffffffff1660e01b8152600401602060405180830381865afa158015611023573d6000803e3d6000fd5b505050506040513d601f19601f820116820180604052508101906110479190611767565b600180546001600160a01b0319166001600160a01b0392831617905560405163cd3d4fb960e01b81526000917f0000000000000000000000000000000000000000000000000000000000000000169063cd3d4fb9906110ab906002906004016117ae565b602060405180830381865afa1580156110c8573d6000803e3d6000fd5b505050506040513d601f19601f820116820180604052508101906110ec9190611767565b90506000816001600160a01b031663ba1d0ff46040518163ffffffff1660e01b8152600401602060405180830381865afa15801561112e573d6000803e3d6000fd5b505050506040513d601f19601f820116820180604052508101906111529190611767565b6040516337b6269f60e21b81526001600160a01b0386811660048301529192509082169063ded89a7c906024016040805180830381865afa15801561119b573d6000803e3d6000fd5b505050506040513d601f19601f820116820180604052508101906111bf91906117bc565b50600280546001600160a01b0319166001600160a01b039290921691909117905550505050565b600b541561122d5760405162461bcd60e51b815260206004820152601460248201527315185cdac8185b1c9958591e4818dc99585d195960621b6044820152606401610536565b60408051631698456360e11b60208201526000910160408051808303601f19018152600383830181815260c085019093529093506000929182918160200160208202803683370190505081526040805160038082526080820190925260209092019190816020015b606081526020019060019003908161129557505090528051805191925060009182906112c3576112c36117fb565b602002602001019060058111156112dc576112dc611784565b908160058111156112ef576112ef611784565b815250506002816000015160018151811061130c5761130c6117fb565b6020026020010190600581111561132557611325611784565b9081600581111561133857611338611784565b8152505060058160000151600281518110611355576113556117fb565b6020026020010190600581111561136e5761136e611784565b9081600581111561138157611381611784565b9052506040805160048152602481019091526020810180516001600160e01b0316633cd420b760e11b1790526113b890309061150e565b81602001516000815181106113cf576113cf6117fb565b60200260200101819052506113ef60408051602081019091526000815290565b8160200151600181518110611406576114066117fb565b602002602001018190525061141961153b565b8160200151600281518110611430576114306117fb565b60200260200101819052506114483083836000611599565b600b819055600354604080519283523060208401526001600160a01b03909116917f1f61709067c4e5e9bedcd7547208c29665337b247e59d0548d75da500e4db983910161057b565b60405163ee8ca3b560e01b8152600481018290527f00000000000000000000000000000000000000000000000000000000000000006001600160a01b03169063ee8ca3b590602401600060405180830381600087803b1580156114f357600080fd5b505af1158015611507573d6000803e3d6000fd5b5050505050565b60608282604051602001611523929190611811565b60405160208183030381529060405290505b92915050565b606060006040518060200160405280600081525060405160200161155f9190611835565b6040516020818303038152906040529050600381604051602001611584929190611848565b60405160208183030381529060405291505090565b604051633323b46760e01b81526000906001600160a01b037f00000000000000000000000000000000000000000000000000000000000000001690633323b467906115ee908890889088908890600401611871565b6020604051808303816000875af115801561160d573d6000803e3d6000fd5b505050506040513d601f19601f820116820180604052508101906116319190611957565b95945050505050565b60006020828403121561164c57600080fd5b5035919050565b6000815180845260005b818110156116795760208185018101518683018201520161165d565b506000602082860101526020601f19601f83011685010191505092915050565b82151581526040602082015260006116b46040830184611653565b949350505050565b6001600160a01b0381168114610c8b57600080fd5b600080600080600060a086880312156116e957600080fd5b85356116f4816116bc565b94506020860135611704816116bc565b94979496505050506040830135926060810135926080909101359150565b60006020828403121561173457600080fd5b813561173f816116bc565b9392505050565b8082018082111561153557634e487b7160e01b600052601160045260246000fd5b60006020828403121561177957600080fd5b815161173f816116bc565b634e487b7160e01b600052602160045260246000fd5b600681106117aa576117aa611784565b9052565b60208101611535828461179a565b600080604083850312156117cf57600080fd5b82516117da816116bc565b602084015190925080151581146117f057600080fd5b809150509250929050565b634e487b7160e01b600052603260045260246000fd5b6001600160a01b03831681526040602082018190526000906116b490830184611653565b60208152600061173f6020830184611653565b60006004841061185a5761185a611784565b838252604060208301526116b46040830184611653565b6001600160a01b03851681526080602080830182905260009161189690840187611653565b8381036040808601919091528651818352805191830182905283019060009060608401905b808310156118e2576118ce82855161179a565b9285019260019290920191908501906118bb565b508885015184820394860194909452835180825281860194860193509150600582901b8101850160005b8381101561193a57601f19838303018652611928828651611653565b9587019594870194915060010161190c565b506001600160a01b03891660608901529550611631945050505050565b60006020828403121561196957600080fd5b505191905056fea2646970667358221220def34bc2ed0b831264f79e243cc7716522bc04917f0ec62d3fda28d47c7e2f7d64736f6c63430008190033",
  "linkReferences": {},
  "deployedLinkReferences": {}
}